:1000000077C000000EC3000051C3000092C0000082
:1000100090C000008EC000008CC000008AC00000AC
:1000200088C0000086C0000084C0000082C00000BC
:1000300080C000007EC000007CC000007AC00000CC
:1000400078C0000076C0000074C0000072C00000DC
:1000500070C000006EC000006CC000006AC00000EC
:1000600068C0000066C0000064C0000062C00000FC
:1000700060C000005EC000005CC000005AC000000C
:1000800058C0000056C0000054C0000085C30000E6
:1000900050C000004EC000004CC000004AC000002C
:1000A00048C0000046C0000044C0000042C000003C
:1000B00040C000003EC000003CC000003AC000004C
:1000C00038C0000036C00000CBC1000032C00000C4
:1000D00030C000002EC000002CC000002AC000006C
:1000E00028C00000E3029B03FE03E902A10304040D
:1000F00011241FBECFEFD1E2DEBFCDBF00E00CBFA9
:1001000022E0A0E0B2E001C01D92AA30B207E1F700
:1001100010E0C5E7D0E000E005C021970109802F7D
:10012000FE0178D3C237D10780E00807B1F7DDD0F0
:1001300079C366CFFC017183608342831382089583
:100140000F931F93CF938C01FC016383C0E0F801F0
:100150008281C817D0F48381C81758F42081318177
:100160008C2F90E0880F991F6FEF820F931F71D033
:100170000AC0F801208131818C2F90E0880F991FEF
:10018000820F931F3FD0CF5FE2CFCF911F910F918E
:100190000895FC0163812281621718F46F5F638305
:1001A000CFCF0895FC0160834183623461F018F47D
:1001B000613431F008956334F1F06834F9F0089552
:1001C0008FEF81B908958FEF84B98181873031F441
:1001D00083E884BD81E085BD17BC0895853089F42E
:1001E00083E88093800081E08093810010928900F1
:1001F0001092880008958FEF87B908958FEF80934C
:10020000010108952EEF30E0FC01018002C0220FB1
:10021000331F0A94E2F78081823469F018F4813444
:1002200031F00895833459F0883469F0089582B12B
:10023000282322B9089585B1282325B9089588B1C6
:10024000282328B90895E2E0F1E080812823208363
:100250000895FC0121E030E0018002C0220F331F2D
:100260000A94E2F79081923469F018F4913431F0F5
:1002700008959334F1F0983401F1089582B1282B58
:1002800022B9089585B1282B25B98181873011F4D1
:1002900067BD08958530B1F481E06F3F08F480E0D8
:1002A00090E09195819591099093890080938800C1
:1002B000089588B1282B28B90895E2E0F1E0808103
:1002C000282B20830895FC0171836083538342832C
:1002D0000895CF93DF93EC016FEFBBDF64E3CE01B2
:1002E0000296B7DFDF91CF910895CF93DF93CDB71B
:1002F000DEB7A2970FB6F894DEBF0FBECDBF41E0C8
:1003000063E4CE0105964EDF43E063E4CE01079639
:1003100049DF45E063E4CE01099644DF47E063E44A
:10032000CE010B963FDF46E061E4CE010D963ADF49
:1003300044E061E4CE010F9635DF40E063E4CE0196
:10034000419630DF42E063E4CE0143962BDF44E088
:1003500063E4CE01459626DF46E063E4CE0147968E
:1003600021DF47E061E4CE0149961CDF47E062E40B
:10037000CE01039617DF45E062E4CE01019612DF5D
:100380004B815C8169817A81CE014B969CDF4BE089
:10039000BE016B5F7F4FCE014F96CCDECE014F96F4
:1003A000F8DECE014B9695DFF9CFFC01A1E0B1E07C
:1003B0008C9189608C9382EC8093A00089E180937A
:1003C000A1008FEF9CE79093A7008093A60020E008
:1003D0003DE73093A9002093A800A0E0B1E08C9104
:1003E0008E7F8C9381E08093200193E19093210193
:1003F00043ED50E35093290140932801809373000B
:10040000789431832083128214821382089580E0CD
:100410009DE79093A9008093A80008950F931F93E0
:10042000CF93DF93EC018B01019731F46F3F7F4F46
:1004300019F480E092E0B9DFCD2B31F40F3F1F4F6C
:1004400019F480E092E0E3DFDF91CF911F910F91EB
:100450000895FC01808191810895FC0182810895B5
:100460001F920F920FB60F9211240BB60F92CF92DC
:10047000DF92EF92FF920F931F932F933F934F932F
:100480005F936F937F938F939F93AF93BF93CF931C
:10049000DF93EF93FF9380E092E0DBDFEC0180E0FD
:1004A00092E0DBDF90E02091A8003091A900C21714
:1004B000D30759F42091020120FBEE24E0F8F12C3F
:1004C0008E159F0521F021E003C021E001C020E04E
:1004D000222309F45DC04091A8005091A900403C3E
:1004E0005D4550F030910201032F017010E080173C
:1004F000910721F430E003C030E001C0322F3323F4
:1005000069F0E2E0F1E0908181E0892780838CEA64
:100510009DE59093A9008093A8003AC04091A8005F
:100520005091A9004C175D0750F04091020140FB2B
:10053000CC24C0F8D12C8C159D0509F4232F22233F
:1005400099F0E8EAF0E0808191814496918380837C
:1005500080819181803C9D45D8F080E09DE790931B
:10056000A9008093A80014C08091A8009091A900D0
:10057000803C9D4530F08CEA9DE59093A9008093E6
:10058000A800E8EAF0E0808191814497918380831C
:10059000FF91EF91DF91CF91BF91AF919F918F919B
:1005A0007F916F915F914F913F912F911F910F918B
:1005B000FF90EF90DF90CF900F900BBE0F900FBE8B
:1005C0000F901F9018956FEF7FEF81E090E026CF9E
:1005D00008956FEF7FEF80E090E020CF0895E9E687
:1005E000F0E080818F6080838DB383608DBB089540
:1005F000019731F46F3F7F4F19F485E092E0EFCF20
:100600000895FC01718360830895FC0180819181CC
:100610000895FC01738362830895FC0182819381B4
:1006200008951F920F920FB60F9211240BB60F92DE
:100630002F933F934F935F936F937F938F939F93EA
:10064000AF93BF93CF93DF93EF93FF9389E092E053
:100650009FD0EC0185E092E0E0DF0596C817D9074E
:1006600084F085E092E0D1DFBC016F5F7F4F85E0D1
:1006700092E0C7DF89E092E08BD0BC0185E092E098
:10068000C8DFFF91EF91DF91CF91BF91AF919F9123
:100690008F917F916F915F914F913F912F910F902B
:1006A0000BBE0F900FBE0F901F9018951F920F92C8
:1006B0000FB60F9211240BB60F922F933F934F93C7
:1006C0005F936F937F938F939F93AF93BF93CF93DA
:1006D000DF93EF93FF9389E092E05AD0EC0185E03D
:1006E00092E09BDF0596C817D90784F085E092E079
:1006F0008CDFBC016F5F7F4F85E092E082DF89E095
:1007000092E046D0BC0185E092E083DFFF91EF915B
:10071000DF91CF91BF91AF919F918F917F916F9119
:100720005F914F913F912F910F900BBE0F900FBE95
:100730000F901F9018956FEF7FEF81E090E058CFFA
:1007400008956FEF7FEF80E090E052CF0895FC01B5
:100750008FEF84B915B891E09093900083E1809376
:10076000910023ED30E3309399002093980090930B
:100770007100789410820895019731F46F3F7F4F94
:1007800019F489E092E0E3CF0895FC0160830895B5
:10079000FC01808190E008951F920F920FB60F9296
:1007A00011240BB60F922F933F934F935F936F9348
:1007B0007F938F939F93AF93BF93EF93FF9389E0C2
:1007C00092E0E6DF61E0680F89E092E0DEDF89E039
:1007D00092E0DEDF85B9FF91EF91BF91AF919F91DC
:1007E0008F917F916F915F914F913F912F910F90DA
:1007F0000BBE0F900FBE0F901F9018956FEF7FEFFD
:1008000081E090E0B9CF08956FEF7FEF80E090E056
:10081000B3CF0895EE0FFF1F881F8BBF0790F6918F
:10082000E02D199410E0C5E7D0E000E005C0802F6E
:10083000FE01F0DF2196011DC837D10780E00807CF
:06084000B1F7F894FFCFB0
:00000001FF
