S00D00004C696768742E737265631F
S113000071C0000079C0000077C0000075C0000016
S113001073C0000071C000006FC000006DC000001C
S11300206BC0000069C0000067C0000065C000002C
S113003063C0000061C000005FC000005DC000003C
S11300405BC0000059C0000057C0000055C000004C
S113005053C0000051C000004FC000004DC000005C
S11300604BC0000049C0000047C0000045C000006C
S113007043C0000041C000003FC000003DC000007C
S11300803BC0000039C0000037C0000035C000008C
S113009033C0000031C000002FC000002DC000009C
S11300A02BC0000029C0000027C0000025C00000AC
S11300B023C0000021C000001FC000001DC00000BC
S11300C01BC0000019C0000017C0000015C00000CC
S11300D013C0000011C000000FC000000DC00000DC
S11300E00BC0000011241FBECFEFD1E2DEBFCDBF95
S11300F000E00CBF92D0F1C083CFFC017183608318
S11301004283138208950F931F93CF938C01FC01B4
S11301106383C0E0F8018281C817D0F48381C817D3
S113012058F4208131818C2F90E0880F991F6FEF54
S1130130820F931F42D00AC0F801208131818C2F95
S113014090E0880F991F820F931F1ED0CF5FE2CFDC
S1130150CF911F910F910895FC0163812281621751
S113016018F46F5F6383CFCF0895FC0160834183EC
S1130170623419F0683421F008958FEF84B908953A
S11301808FEF8093010108952EEF30E0FC01018090
S113019002C0220F331F0A94E2F78081823419F0DF
S11301A0883429F0089585B1282325B90895E2E01B
S11301B0F1E0808128232083089521E030E0FC01D0
S11301C0018002C0220F331F0A94E2F78081823437
S11301D019F0883429F0089585B1282B25B908959C
S11301E0E2E0F1E08081282B20830895FC017183F3
S11301F060835383428384B58C7F84BD82E085BD54
S11302000895CF93DF93EC0165E5D7DF6AE2CE0171
S11302100296D3DFDF91CF910895CF93DF93CDB7CB
S1130220DEB7A2970FB6F894DEBF0FBECDBF41E094
S113023062E4CE01059699DF41E062E4CE010796BF
S113024094DF41E062E4CE0109968FDF41E062E48D
S1130250CE010B968ADF41E062E4CE010D9685DF84
S113026041E062E4CE010F9680DF41E062E4CE011A
S113027041967BDF41E062E4CE01439676DF41E0C4
S113028062E4CE01459671DF41E062E4CE01479617
S11302906CDF41E062E4CE01499667DF45E068E443
S11302A0CE01039662DF46E068E4CE0101965DDF8D
S11302B04B815C8169817A81CE014B9697DF4BE05B
S11302C0BE016B5F7F4FCE014F9617DFCE014B9679
S11102D098DFCE014F9640DFFCCFF894FFCFAD
S9030000FC
