S00D00004C696768742E737265631F
S113000071C0000079C0000077C0000075C0000016
S113001073C0000071C000006FC000006DC000001C
S11300206BC0000069C0000067C0000065C000002C
S113003063C0000061C000005FC000005DC000003C
S11300405BC0000059C0000057C0000055C000004C
S113005053C0000051C000004FC000004DC000005C
S11300604BC0000049C0000047C0000045C000006C
S113007043C0000041C000003FC000003DC000007C
S11300803BC0000039C0000037C0000035C000008C
S113009033C0000031C000002FC000002DC000009C
S11300A02BC0000029C0000027C0000025C00000AC
S11300B023C0000021C000001FC000001DC00000BC
S11300C01BC0000019C0000017C0000015C00000CC
S11300D013C0000011C000000FC000000DC00000DC
S11300E00BC0000011241FBECFEFD1E2DEBFCDBF95
S11300F000E00CBF12D091C083CF8FEF8093010139
S11301000895E2E0F1E08081806680830895E2E072
S1130110F1E080818F7980830895CF93DF931F92DC
S1130120CDB7DEB7CE010196E8DF20E048E060EB12
S113013074E080E090E012D000E010E0083E83E03C
S1130140180724F4CE010196DCDF03C0CE0101962A
S1130150DEDF81E039D00F5F1F4FF0CFCF93C22F86
S113016028E12093C10026E02093C200DC01CB01EA
S1130170880F991FAA1FBB1F880F991FAA1FBB1F97
S11301809C01AD01220F331F441F551F220F331F43
S1130190441F551F60E074E284EF90E01CD02150AE
S11301A031093093C5002093C400C11106C0E1ECAD
S11301B0F0E080818F77808305C0E1ECF0E08081FE
S11301C080688083CF9108959091C00095FFFCCF03
S11301D08093C6000895A1E21A2EAA1BBB1BFD0141
S11301E00DC0AA1FBB1FEE1FFF1FA217B307E40712
S11301F0F50720F0A21BB30BE40BF50B661F771F6A
S1130200881F991F1A9469F7609570958095909549
S11102109B01AC01BD01CF010895F894FFCF0E
S9030000FC
