:1000000071C0000079C0000077C0000075C000001A
:1000100073C0000071C000006FC000006DC0000020
:100020006BC0000069C0000067C0000065C0000030
:1000300063C0000061C000005FC000005DC0000040
:100040005BC0000059C0000057C0000055C0000050
:1000500053C0000051C000004FC000004DC0000060
:100060004BC0000049C0000047C0000045C0000070
:1000700043C0000041C000003FC000003DC0000080
:100080003BC0000039C0000037C0000035C0000090
:1000900033C0000031C000002FC000002DC00000A0
:1000A0002BC0000029C0000027C0000025C00000B0
:1000B00023C0000021C000001FC000001DC00000C0
:1000C0001BC0000019C0000017C0000015C00000D0
:1000D00013C0000011C000000FC000000DC00000E0
:1000E0000BC0000011241FBECFEFD1E2DEBFCDBF99
:1000F00000E00CBFDDD03CC183CFFC017183608385
:100100004283138208950F931F93CF938C01FC01B8
:100110006383C0E0F8018281C817D0F48381C817D7
:1001200058F4208131818C2F90E0880F991F6FEF58
:10013000820F931F71D00AC0F801208131818C2F6A
:1001400090E0880F991F820F931F3FD0CF5FE2CFBF
:10015000CF911F910F910895FC0163812281621755
:1001600018F46F5F6383CFCF0895FC0160834183F0
:10017000623461F018F4613431F008956334F1F0C1
:100180006834F9F008958FEF81B908958FEF84B93D
:100190008181873031F483E884BD81E085BD17BC5F
:1001A0000895853089F483E88093800081E080930E
:1001B0008100109289001092880008958FEF87B90E
:1001C00008958FEF8093010108952EEF30E0FC0138
:1001D000018002C0220F331F0A94E2F7808182342B
:1001E00069F018F4813431F00895833459F088347B
:1001F00069F0089582B1282322B9089585B1282392
:1002000025B9089588B1282328B90895E2E0F1E0DE
:100210008081282320830895FC0121E030E00180C3
:1002200002C0220F331F0A94E2F79081923469F0E2
:1002300018F4913431F008959334F1F0983401F1C9
:10024000089582B1282B22B9089585B1282B25B9AC
:100250008181873011F467BD08958530B1F481E064
:100260006F3F08F480E090E091958195910990931B
:10027000890080938800089588B1282B28B90895B3
:10028000E2E0F1E08081282B20830895FC01718356
:100290006083538342830895CF93DF93EC016FEF24
:1002A000BBDF64E3CE010296B7DFDF91CF91089503
:1002B000CF93DF93CDB7DEB7A2970FB6F894DEBF2A
:1002C0000FBECDBF41E063E4CE0105964EDF43E0B3
:1002D00063E4CE01079649DF45E063E4CE01099669
:1002E00044DF47E063E4CE010B963FDF46E061E484
:1002F000CE010D963ADF44E061E4CE010F9635DF82
:1003000040E063E4CE01419630DF42E063E4CE0199
:1003100043962BDF44E063E4CE01459626DF46E0BA
:1003200063E4CE01479621DF47E061E4CE014996C0
:100330001CDF47E062E4CE01039617DF45E062E48C
:10034000CE01019612DF4B815C8169817A81CE01F9
:100350004B969CDF4BE0BE016B5F7F4FCE014F960B
:10036000CCDECE014F96F8DECE014B9695DFF9CF6D
:04037000F894FFCF2F
:00000001FF
